{
  "address": "0xAC1a5659d235F76D40950bC7aCA763F84b638138",
  "abi": [
    {
      "inputs": [
        {
          "internalType": "uint256",
          "name": "_servicefeepercentage",
          "type": "uint256"
        },
        {
          "internalType": "address",
          "name": "erc20",
          "type": "address"
        }
      ],
      "stateMutability": "nonpayable",
      "type": "constructor"
    },
    {
      "anonymous": false,
      "inputs": [
        {
          "indexed": false,
          "internalType": "address",
          "name": "recipient",
          "type": "address"
        },
        {
          "indexed": false,
          "internalType": "uint256",
          "name": "amount",
          "type": "uint256"
        }
      ],
      "name": "payout",
      "type": "event"
    },
    {
      "inputs": [
        {
          "internalType": "uint256",
          "name": "",
          "type": "uint256"
        }
      ],
      "name": "Nfts",
      "outputs": [
        {
          "internalType": "address",
          "name": "owners",
          "type": "address"
        },
        {
          "internalType": "bool",
          "name": "isForSelling",
          "type": "bool"
        },
        {
          "internalType": "uint256",
          "name": "price",
          "type": "uint256"
        }
      ],
      "stateMutability": "view",
      "type": "function"
    },
    {
      "inputs": [
        {
          "internalType": "uint256",
          "name": "",
          "type": "uint256"
        }
      ],
      "name": "TokenIdtoPrice",
      "outputs": [
        {
          "internalType": "uint256",
          "name": "",
          "type": "uint256"
        }
      ],
      "stateMutability": "view",
      "type": "function"
    },
    {
      "inputs": [],
      "name": "admin",
      "outputs": [
        {
          "internalType": "address",
          "name": "",
          "type": "address"
        }
      ],
      "stateMutability": "view",
      "type": "function"
    },
    {
      "inputs": [
        {
          "internalType": "uint256",
          "name": "_tokenId",
          "type": "uint256"
        },
        {
          "internalType": "string",
          "name": "currency",
          "type": "string"
        }
      ],
      "name": "buyNFT",
      "outputs": [],
      "stateMutability": "payable",
      "type": "function"
    },
    {
      "inputs": [
        {
          "internalType": "uint256",
          "name": "tokenId",
          "type": "uint256"
        },
        {
          "internalType": "bool",
          "name": "isForSelling",
          "type": "bool"
        },
        {
          "internalType": "uint256",
          "name": "price",
          "type": "uint256"
        }
      ],
      "name": "createNFT",
      "outputs": [],
      "stateMutability": "nonpayable",
      "type": "function"
    },
    {
      "inputs": [],
      "name": "servicefeepercentage",
      "outputs": [
        {
          "internalType": "uint256",
          "name": "",
          "type": "uint256"
        }
      ],
      "stateMutability": "view",
      "type": "function"
    }
  ],
  "transactionHash": "0x03ec44ae8ec0da859c637f9767b63ce43fe199d5742f01547a9cb1f0dcc00eb1",
  "args": [
    10,
    "0x6f082880a8a60716a894fA026C26249D10733fdd"
  ],
  "numDeployments": 1,
  "solcInputHash": "937d202b264b3acc84aaa2087a3aefbc",
  "bytecode": "0x60806040523480156200001157600080fd5b50604051620015083803806200150883398181016040528101906200003791906200016c565b33600160006101000a81548173ffffffffffffffffffffffffffffffffffffffff021916908373ffffffffffffffffffffffffffffffffffffffff16021790555081600281905550806000806101000a81548173ffffffffffffffffffffffffffffffffffffffff021916908373ffffffffffffffffffffffffffffffffffffffff1602179055505050620001b3565b600080fd5b6000819050919050565b620000e181620000cc565b8114620000ed57600080fd5b50565b6000815190506200010181620000d6565b92915050565b600073ffffffffffffffffffffffffffffffffffffffff82169050919050565b6000620001348262000107565b9050919050565b620001468162000127565b81146200015257600080fd5b50565b60008151905062000166816200013b565b92915050565b60008060408385031215620001865762000185620000c7565b5b60006200019685828601620000f0565b9250506020620001a98582860162000155565b9150509250929050565b61134580620001c36000396000f3fe6080604052600436106100555760003560e01c80630854748a1461005a57806327d3490d1461007657806346c59531146100a1578063bc8a4361146100e0578063f057f7261461011d578063f851a44014610146575b600080fd5b610074600480360381019061006f9190610c25565b610171565b005b34801561008257600080fd5b5061008b610981565b6040516100989190610c94565b60405180910390f35b3480156100ad57600080fd5b506100c860048036038101906100c39190610caf565b610987565b6040516100d793929190610d38565b60405180910390f35b3480156100ec57600080fd5b5061010760048036038101906101029190610caf565b6109de565b6040516101149190610c94565b60405180910390f35b34801561012957600080fd5b50610144600480360381019061013f9190610d9b565b6109f6565b005b34801561015257600080fd5b5061015b610b5a565b6040516101689190610dee565b60405180910390f35b600073ffffffffffffffffffffffffffffffffffffffff166003600085815260200190815260200160002060000160009054906101000a900473ffffffffffffffffffffffffffffffffffffffff1673ffffffffffffffffffffffffffffffffffffffff161415610217576040517f08c379a000000000000000000000000000000000000000000000000000000000815260040161020e90610e66565b60405180910390fd5b600115156003600085815260200190815260200160002060000160149054906101000a900460ff16151514610281576040517f08c379a000000000000000000000000000000000000000000000000000000000815260040161027890610ed2565b60405180910390fd5b60405160200161029090610f49565b6040516020818303038152906040528051906020012082826040516020016102b9929190610f92565b604051602081830303815290604052805190602001201415610512576003600084815260200190815260200160002060010154341461032d576040517f08c379a000000000000000000000000000000000000000000000000000000000815260040161032490610ff7565b60405180910390fd5b600060646002543461033f9190611046565b61034991906110cf565b9050600081346103599190611100565b9050600160009054906101000a900473ffffffffffffffffffffffffffffffffffffffff1673ffffffffffffffffffffffffffffffffffffffff166108fc839081150290604051600060405180830381858888f193505050501580156103c3573d6000803e3d6000fd5b507f117de2fd76ea4a212645377cbe8b6af68c7e4c8169b18d98c4e6aa04d07366a1600160009054906101000a900473ffffffffffffffffffffffffffffffffffffffff1683604051610417929190611134565b60405180910390a16003600086815260200190815260200160002060000160009054906101000a900473ffffffffffffffffffffffffffffffffffffffff1673ffffffffffffffffffffffffffffffffffffffff166108fc829081150290604051600060405180830381858888f1935050505015801561049b573d6000803e3d6000fd5b507f117de2fd76ea4a212645377cbe8b6af68c7e4c8169b18d98c4e6aa04d07366a16003600087815260200190815260200160002060000160009054906101000a900473ffffffffffffffffffffffffffffffffffffffff1682604051610503929190611134565b60405180910390a150506108f8565b604051602001610521906111a9565b60405160208183030381529060405280519060200120828260405160200161054a929190610f92565b6040516020818303038152906040528051906020012014156108f75760008054906101000a900473ffffffffffffffffffffffffffffffffffffffff1673ffffffffffffffffffffffffffffffffffffffff166370a08231336040518263ffffffff1660e01b81526004016105bf9190610dee565b6020604051808303816000875af11580156105de573d6000803e3d6000fd5b505050506040513d601f19601f8201168201806040525081019061060291906111d3565b6003600085815260200190815260200160002060010154111561065a576040517f08c379a00000000000000000000000000000000000000000000000000000000081526004016106519061124c565b60405180910390fd5b6000606460025460036000878152602001908152602001600020600101546106829190611046565b61068c91906110cf565b905060008160036000878152602001908152602001600020600101546106b29190611100565b905060008054906101000a900473ffffffffffffffffffffffffffffffffffffffff1673ffffffffffffffffffffffffffffffffffffffff1663f5537ede33600160009054906101000a900473ffffffffffffffffffffffffffffffffffffffff16856040518463ffffffff1660e01b81526004016107339392919061126c565b600060405180830381600087803b15801561074d57600080fd5b505af1158015610761573d6000803e3d6000fd5b505050507f117de2fd76ea4a212645377cbe8b6af68c7e4c8169b18d98c4e6aa04d07366a1600160009054906101000a900473ffffffffffffffffffffffffffffffffffffffff16836040516107b8929190611134565b60405180910390a160008054906101000a900473ffffffffffffffffffffffffffffffffffffffff1673ffffffffffffffffffffffffffffffffffffffff1663f5537ede336003600089815260200190815260200160002060000160009054906101000a900473ffffffffffffffffffffffffffffffffffffffff16846040518463ffffffff1660e01b81526004016108539392919061126c565b600060405180830381600087803b15801561086d57600080fd5b505af1158015610881573d6000803e3d6000fd5b505050507f117de2fd76ea4a212645377cbe8b6af68c7e4c8169b18d98c4e6aa04d07366a16003600087815260200190815260200160002060000160009054906101000a900473ffffffffffffffffffffffffffffffffffffffff16826040516108ec929190611134565b60405180910390a150505b5b336003600085815260200190815260200160002060000160006101000a81548173ffffffffffffffffffffffffffffffffffffffff021916908373ffffffffffffffffffffffffffffffffffffffff16021790555060006003600085815260200190815260200160002060000160146101000a81548160ff021916908315150217905550505050565b60025481565b60036020528060005260406000206000915090508060000160009054906101000a900473ffffffffffffffffffffffffffffffffffffffff16908060000160149054906101000a900460ff16908060010154905083565b60046020528060005260406000206000915090505481565b600073ffffffffffffffffffffffffffffffffffffffff166003600085815260200190815260200160002060000160009054906101000a900473ffffffffffffffffffffffffffffffffffffffff1673ffffffffffffffffffffffffffffffffffffffff1614610a9b576040517f08c379a0000000000000000000000000000000000000000000000000000000008152600401610a92906112ef565b60405180910390fd5b60405180606001604052803373ffffffffffffffffffffffffffffffffffffffff1681526020018315158152602001828152506003600085815260200190815260200160002060008201518160000160006101000a81548173ffffffffffffffffffffffffffffffffffffffff021916908373ffffffffffffffffffffffffffffffffffffffff16021790555060208201518160000160146101000a81548160ff02191690831515021790555060408201518160010155905050505050565b600160009054906101000a900473ffffffffffffffffffffffffffffffffffffffff1681565b600080fd5b600080fd5b6000819050919050565b610b9d81610b8a565b8114610ba857600080fd5b50565b600081359050610bba81610b94565b92915050565b600080fd5b600080fd5b600080fd5b60008083601f840112610be557610be4610bc0565b5b8235905067ffffffffffffffff811115610c0257610c01610bc5565b5b602083019150836001820283011115610c1e57610c1d610bca565b5b9250929050565b600080600060408486031215610c3e57610c3d610b80565b5b6000610c4c86828701610bab565b935050602084013567ffffffffffffffff811115610c6d57610c6c610b85565b5b610c7986828701610bcf565b92509250509250925092565b610c8e81610b8a565b82525050565b6000602082019050610ca96000830184610c85565b92915050565b600060208284031215610cc557610cc4610b80565b5b6000610cd384828501610bab565b91505092915050565b600073ffffffffffffffffffffffffffffffffffffffff82169050919050565b6000610d0782610cdc565b9050919050565b610d1781610cfc565b82525050565b60008115159050919050565b610d3281610d1d565b82525050565b6000606082019050610d4d6000830186610d0e565b610d5a6020830185610d29565b610d676040830184610c85565b949350505050565b610d7881610d1d565b8114610d8357600080fd5b50565b600081359050610d9581610d6f565b92915050565b600080600060608486031215610db457610db3610b80565b5b6000610dc286828701610bab565b9350506020610dd386828701610d86565b9250506040610de486828701610bab565b9150509250925092565b6000602082019050610e036000830184610d0e565b92915050565b600082825260208201905092915050565b7f746f6b656e20646f65736e742065786973740000000000000000000000000000600082015250565b6000610e50601283610e09565b9150610e5b82610e1a565b602082019050919050565b60006020820190508181036000830152610e7f81610e43565b9050919050565b7f4e6f7420666f722073616c650000000000000000000000000000000000000000600082015250565b6000610ebc600c83610e09565b9150610ec782610e86565b602082019050919050565b60006020820190508181036000830152610eeb81610eaf565b9050919050565b600081905092915050565b7f4574686572000000000000000000000000000000000000000000000000000000600082015250565b6000610f33600583610ef2565b9150610f3e82610efd565b600582019050919050565b6000610f5482610f26565b9150819050919050565b82818337600083830152505050565b6000610f798385610ef2565b9350610f86838584610f5e565b82840190509392505050565b6000610f9f828486610f6d565b91508190509392505050565b7f7072696365206e6f74206d657400000000000000000000000000000000000000600082015250565b6000610fe1600d83610e09565b9150610fec82610fab565b602082019050919050565b6000602082019050818103600083015261101081610fd4565b9050919050565b7f4e487b7100000000000000000000000000000000000000000000000000000000600052601160045260246000fd5b600061105182610b8a565b915061105c83610b8a565b9250817fffffffffffffffffffffffffffffffffffffffffffffffffffffffffffffffff048311821515161561109557611094611017565b5b828202905092915050565b7f4e487b7100000000000000000000000000000000000000000000000000000000600052601260045260246000fd5b60006110da82610b8a565b91506110e583610b8a565b9250826110f5576110f46110a0565b5b828204905092915050565b600061110b82610b8a565b915061111683610b8a565b92508282101561112957611128611017565b5b828203905092915050565b60006040820190506111496000830185610d0e565b6111566020830184610c85565b9392505050565b7f546f6b656e000000000000000000000000000000000000000000000000000000600082015250565b6000611193600583610ef2565b915061119e8261115d565b600582019050919050565b60006111b482611186565b9150819050919050565b6000815190506111cd81610b94565b92915050565b6000602082840312156111e9576111e8610b80565b5b60006111f7848285016111be565b91505092915050565b7f496e73756666696369656e742062616c616e6365000000000000000000000000600082015250565b6000611236601483610e09565b915061124182611200565b602082019050919050565b6000602082019050818103600083015261126581611229565b9050919050565b60006060820190506112816000830186610d0e565b61128e6020830185610d0e565b61129b6040830184610c85565b949350505050565b7f746f6b656e206578697374000000000000000000000000000000000000000000600082015250565b60006112d9600b83610e09565b91506112e4826112a3565b602082019050919050565b60006020820190508181036000830152611308816112cc565b905091905056fea26469706673582212208a74a93569de77f87f97873759b56603beae2622e880cec75900d9fd166a56ca64736f6c634300080a0033",
  "devdoc": {
    "kind": "dev",
    "methods": {},
    "version": 1
  },
  "userdoc": {
    "kind": "user",
    "methods": {},
    "version": 1
  },
  "storageLayout": {
    "storage": [
      {
        "astId": 1099,
        "contract": "contracts/NftMarketplace.sol:NftMarketplace",
        "label": "xnfttoken",
        "offset": 0,
        "slot": "0",
        "type": "t_contract(Tokentransfer)738"
      },
      {
        "astId": 1107,
        "contract": "contracts/NftMarketplace.sol:NftMarketplace",
        "label": "admin",
        "offset": 0,
        "slot": "1",
        "type": "t_address"
      },
      {
        "astId": 1109,
        "contract": "contracts/NftMarketplace.sol:NftMarketplace",
        "label": "servicefeepercentage",
        "offset": 0,
        "slot": "2",
        "type": "t_uint256"
      },
      {
        "astId": 1114,
        "contract": "contracts/NftMarketplace.sol:NftMarketplace",
        "label": "Nfts",
        "offset": 0,
        "slot": "3",
        "type": "t_mapping(t_uint256,t_struct(NftMarket)1096_storage)"
      },
      {
        "astId": 1118,
        "contract": "contracts/NftMarketplace.sol:NftMarketplace",
        "label": "TokenIdtoPrice",
        "offset": 0,
        "slot": "4",
        "type": "t_mapping(t_uint256,t_uint256)"
      }
    ],
    "types": {
      "t_address": {
        "encoding": "inplace",
        "label": "address",
        "numberOfBytes": "20"
      },
      "t_bool": {
        "encoding": "inplace",
        "label": "bool",
        "numberOfBytes": "1"
      },
      "t_contract(Tokentransfer)738": {
        "encoding": "inplace",
        "label": "contract Tokentransfer",
        "numberOfBytes": "20"
      },
      "t_mapping(t_uint256,t_struct(NftMarket)1096_storage)": {
        "encoding": "mapping",
        "key": "t_uint256",
        "label": "mapping(uint256 => struct NftMarketplace.NftMarket)",
        "numberOfBytes": "32",
        "value": "t_struct(NftMarket)1096_storage"
      },
      "t_mapping(t_uint256,t_uint256)": {
        "encoding": "mapping",
        "key": "t_uint256",
        "label": "mapping(uint256 => uint256)",
        "numberOfBytes": "32",
        "value": "t_uint256"
      },
      "t_struct(NftMarket)1096_storage": {
        "encoding": "inplace",
        "label": "struct NftMarketplace.NftMarket",
        "members": [
          {
            "astId": 1091,
            "contract": "contracts/NftMarketplace.sol:NftMarketplace",
            "label": "owners",
            "offset": 0,
            "slot": "0",
            "type": "t_address"
          },
          {
            "astId": 1093,
            "contract": "contracts/NftMarketplace.sol:NftMarketplace",
            "label": "isForSelling",
            "offset": 20,
            "slot": "0",
            "type": "t_bool"
          },
          {
            "astId": 1095,
            "contract": "contracts/NftMarketplace.sol:NftMarketplace",
            "label": "price",
            "offset": 0,
            "slot": "1",
            "type": "t_uint256"
          }
        ],
        "numberOfBytes": "64"
      },
      "t_uint256": {
        "encoding": "inplace",
        "label": "uint256",
        "numberOfBytes": "32"
      }
    }
  }
}