{
  "address": "0xb9930E24CD792b1091d2ae7493c55527131EB9fB",
  "abi": [
    {
      "inputs": [
        {
          "internalType": "uint256",
          "name": "_servicefeepercentage",
          "type": "uint256"
        },
        {
          "internalType": "address",
          "name": "erc20",
          "type": "address"
        }
      ],
      "stateMutability": "nonpayable",
      "type": "constructor"
    },
    {
      "anonymous": false,
      "inputs": [
        {
          "indexed": false,
          "internalType": "uint8",
          "name": "version",
          "type": "uint8"
        }
      ],
      "name": "Initialized",
      "type": "event"
    },
    {
      "anonymous": false,
      "inputs": [
        {
          "indexed": false,
          "internalType": "address",
          "name": "recipient",
          "type": "address"
        },
        {
          "indexed": false,
          "internalType": "uint256",
          "name": "amount",
          "type": "uint256"
        }
      ],
      "name": "payout",
      "type": "event"
    },
    {
      "inputs": [
        {
          "internalType": "uint256",
          "name": "",
          "type": "uint256"
        }
      ],
      "name": "Nfts",
      "outputs": [
        {
          "internalType": "address",
          "name": "owners",
          "type": "address"
        },
        {
          "internalType": "bool",
          "name": "isForSelling",
          "type": "bool"
        },
        {
          "internalType": "uint256",
          "name": "price",
          "type": "uint256"
        }
      ],
      "stateMutability": "view",
      "type": "function"
    },
    {
      "inputs": [
        {
          "internalType": "uint256",
          "name": "",
          "type": "uint256"
        }
      ],
      "name": "TokenIdtoPrice",
      "outputs": [
        {
          "internalType": "uint256",
          "name": "",
          "type": "uint256"
        }
      ],
      "stateMutability": "view",
      "type": "function"
    },
    {
      "inputs": [],
      "name": "admin",
      "outputs": [
        {
          "internalType": "address",
          "name": "",
          "type": "address"
        }
      ],
      "stateMutability": "view",
      "type": "function"
    },
    {
      "inputs": [
        {
          "internalType": "uint256",
          "name": "_tokenId",
          "type": "uint256"
        },
        {
          "internalType": "string",
          "name": "currency",
          "type": "string"
        }
      ],
      "name": "buyNFT",
      "outputs": [],
      "stateMutability": "payable",
      "type": "function"
    },
    {
      "inputs": [
        {
          "internalType": "uint256",
          "name": "tokenId",
          "type": "uint256"
        },
        {
          "internalType": "bool",
          "name": "isForSelling",
          "type": "bool"
        },
        {
          "internalType": "uint256",
          "name": "price",
          "type": "uint256"
        }
      ],
      "name": "createNFT",
      "outputs": [],
      "stateMutability": "nonpayable",
      "type": "function"
    },
    {
      "inputs": [
        {
          "internalType": "uint256",
          "name": "_servicefeepercentage",
          "type": "uint256"
        },
        {
          "internalType": "address",
          "name": "erc20",
          "type": "address"
        }
      ],
      "name": "initialize",
      "outputs": [],
      "stateMutability": "nonpayable",
      "type": "function"
    },
    {
      "inputs": [
        {
          "internalType": "uint256",
          "name": "_tokenId",
          "type": "uint256"
        },
        {
          "internalType": "uint256",
          "name": "price",
          "type": "uint256"
        }
      ],
      "name": "putForSale",
      "outputs": [],
      "stateMutability": "nonpayable",
      "type": "function"
    },
    {
      "inputs": [],
      "name": "servicefeepercentage",
      "outputs": [
        {
          "internalType": "uint256",
          "name": "",
          "type": "uint256"
        }
      ],
      "stateMutability": "view",
      "type": "function"
    }
  ],
  "transactionHash": "0x2ee7389d00cdd1ae29aad060cc956243457f8305eb6c11dac4fbdc131c570b59",
  "args": [
    10,
    "0x7c177bFe09d45546E0f4C50AdC3D6b7D2B4C322E"
  ],
  "numDeployments": 1,
  "solcInputHash": "da1d77a21b0014f9d7226054289a91c7",
  "bytecode": "0x60806040523480156200001157600080fd5b5060405162001ae738038062001ae783398181016040528101906200003791906200016d565b33600160006101000a81548173ffffffffffffffffffffffffffffffffffffffff021916908373ffffffffffffffffffffffffffffffffffffffff1602179055508160028190555080600060026101000a81548173ffffffffffffffffffffffffffffffffffffffff021916908373ffffffffffffffffffffffffffffffffffffffff1602179055505050620001b4565b600080fd5b6000819050919050565b620000e281620000cd565b8114620000ee57600080fd5b50565b6000815190506200010281620000d7565b92915050565b600073ffffffffffffffffffffffffffffffffffffffff82169050919050565b6000620001358262000108565b9050919050565b620001478162000128565b81146200015357600080fd5b50565b60008151905062000167816200013c565b92915050565b60008060408385031215620001875762000186620000c8565b5b60006200019785828601620000f1565b9250506020620001aa8582860162000156565b9150509250929050565b61192380620001c46000396000f3fe60806040526004361061007b5760003560e01c8063bc8a43611161004e578063bc8a43611461012f578063da35a26f1461016c578063f057f72614610195578063f851a440146101be5761007b565b80630854748a1461008057806327d3490d1461009c5780633cd76be2146100c757806346c59531146100f0575b600080fd5b61009a60048036038101906100959190610f80565b6101e9565b005b3480156100a857600080fd5b506100b16109ff565b6040516100be9190610fef565b60405180910390f35b3480156100d357600080fd5b506100ee60048036038101906100e9919061100a565b610a05565b005b3480156100fc57600080fd5b506101176004803603810190610112919061104a565b610afe565b604051610126939291906110d3565b60405180910390f35b34801561013b57600080fd5b506101566004803603810190610151919061104a565b610b55565b6040516101639190610fef565b60405180910390f35b34801561017857600080fd5b50610193600480360381019061018e9190611136565b610b6d565b005b3480156101a157600080fd5b506101bc60048036038101906101b791906111a2565b610d2e565b005b3480156101ca57600080fd5b506101d3610e92565b6040516101e091906111f5565b60405180910390f35b600073ffffffffffffffffffffffffffffffffffffffff166003600085815260200190815260200160002060000160009054906101000a900473ffffffffffffffffffffffffffffffffffffffff1673ffffffffffffffffffffffffffffffffffffffff16141561028f576040517f08c379a00000000000000000000000000000000000000000000000000000000081526004016102869061126d565b60405180910390fd5b600115156003600085815260200190815260200160002060000160149054906101000a900460ff161515146102f9576040517f08c379a00000000000000000000000000000000000000000000000000000000081526004016102f0906112d9565b60405180910390fd5b60405160200161030890611350565b604051602081830303815290604052805190602001208282604051602001610331929190611399565b60405160208183030381529060405280519060200120141561058a57600360008481526020019081526020016000206001015434146103a5576040517f08c379a000000000000000000000000000000000000000000000000000000000815260040161039c906113fe565b60405180910390fd5b60006064600254346103b7919061144d565b6103c191906114d6565b9050600081346103d19190611507565b9050600160009054906101000a900473ffffffffffffffffffffffffffffffffffffffff1673ffffffffffffffffffffffffffffffffffffffff166108fc839081150290604051600060405180830381858888f1935050505015801561043b573d6000803e3d6000fd5b507f117de2fd76ea4a212645377cbe8b6af68c7e4c8169b18d98c4e6aa04d07366a1600160009054906101000a900473ffffffffffffffffffffffffffffffffffffffff168360405161048f92919061153b565b60405180910390a16003600086815260200190815260200160002060000160009054906101000a900473ffffffffffffffffffffffffffffffffffffffff1673ffffffffffffffffffffffffffffffffffffffff166108fc829081150290604051600060405180830381858888f19350505050158015610513573d6000803e3d6000fd5b507f117de2fd76ea4a212645377cbe8b6af68c7e4c8169b18d98c4e6aa04d07366a16003600087815260200190815260200160002060000160009054906101000a900473ffffffffffffffffffffffffffffffffffffffff168260405161057b92919061153b565b60405180910390a15050610976565b604051602001610599906115b0565b6040516020818303038152906040528051906020012082826040516020016105c2929190611399565b60405160208183030381529060405280519060200120141561097557600060029054906101000a900473ffffffffffffffffffffffffffffffffffffffff1673ffffffffffffffffffffffffffffffffffffffff166370a08231336040518263ffffffff1660e01b815260040161063991906111f5565b6020604051808303816000875af1158015610658573d6000803e3d6000fd5b505050506040513d601f19601f8201168201806040525081019061067c91906115da565b600360008581526020019081526020016000206001015411156106d4576040517f08c379a00000000000000000000000000000000000000000000000000000000081526004016106cb90611653565b60405180910390fd5b6000606460025460036000878152602001908152602001600020600101546106fc919061144d565b61070691906114d6565b9050600081600360008781526020019081526020016000206001015461072c9190611507565b9050600060029054906101000a900473ffffffffffffffffffffffffffffffffffffffff1673ffffffffffffffffffffffffffffffffffffffff1663f5537ede33600160009054906101000a900473ffffffffffffffffffffffffffffffffffffffff16856040518463ffffffff1660e01b81526004016107af93929190611673565b600060405180830381600087803b1580156107c957600080fd5b505af11580156107dd573d6000803e3d6000fd5b505050507f117de2fd76ea4a212645377cbe8b6af68c7e4c8169b18d98c4e6aa04d07366a1600160009054906101000a900473ffffffffffffffffffffffffffffffffffffffff168360405161083492919061153b565b60405180910390a1600060029054906101000a900473ffffffffffffffffffffffffffffffffffffffff1673ffffffffffffffffffffffffffffffffffffffff1663f5537ede336003600089815260200190815260200160002060000160009054906101000a900473ffffffffffffffffffffffffffffffffffffffff16846040518463ffffffff1660e01b81526004016108d193929190611673565b600060405180830381600087803b1580156108eb57600080fd5b505af11580156108ff573d6000803e3d6000fd5b505050507f117de2fd76ea4a212645377cbe8b6af68c7e4c8169b18d98c4e6aa04d07366a16003600087815260200190815260200160002060000160009054906101000a900473ffffffffffffffffffffffffffffffffffffffff168260405161096a92919061153b565b60405180910390a150505b5b336003600085815260200190815260200160002060000160006101000a81548173ffffffffffffffffffffffffffffffffffffffff021916908373ffffffffffffffffffffffffffffffffffffffff16021790555060006003600085815260200190815260200160002060000160146101000a81548160ff021916908315150217905550505050565b60025481565b600015156003600084815260200190815260200160002060000160149054906101000a900460ff16151514610a6f576040517f08c379a0000000000000000000000000000000000000000000000000000000008152600401610a66906116f6565b60405180910390fd5b60016003600084815260200190815260200160002060000160146101000a81548160ff0219169083151502179055508060046000848152602001908152602001600020819055506000811415610afa576040517f08c379a0000000000000000000000000000000000000000000000000000000008152600401610af190611762565b60405180910390fd5b5050565b60036020528060005260406000206000915090508060000160009054906101000a900473ffffffffffffffffffffffffffffffffffffffff16908060000160149054906101000a900460ff16908060010154905083565b60046020528060005260406000206000915090505481565b60008060019054906101000a900460ff16159050808015610b9e5750600160008054906101000a900460ff1660ff16105b80610bcb5750610bad30610eb8565b158015610bca5750600160008054906101000a900460ff1660ff16145b5b610c0a576040517f08c379a0000000000000000000000000000000000000000000000000000000008152600401610c01906117f4565b60405180910390fd5b60016000806101000a81548160ff021916908360ff1602179055508015610c47576001600060016101000a81548160ff0219169083151502179055505b33600160006101000a81548173ffffffffffffffffffffffffffffffffffffffff021916908373ffffffffffffffffffffffffffffffffffffffff1602179055508260028190555081600060026101000a81548173ffffffffffffffffffffffffffffffffffffffff021916908373ffffffffffffffffffffffffffffffffffffffff1602179055508015610d295760008060016101000a81548160ff0219169083151502179055507f7f26b83ff96e1f2b6a682f133852f6798a09c465da95921460cefb38474024986001604051610d209190611866565b60405180910390a15b505050565b600073ffffffffffffffffffffffffffffffffffffffff166003600085815260200190815260200160002060000160009054906101000a900473ffffffffffffffffffffffffffffffffffffffff1673ffffffffffffffffffffffffffffffffffffffff1614610dd3576040517f08c379a0000000000000000000000000000000000000000000000000000000008152600401610dca906118cd565b60405180910390fd5b60405180606001604052803373ffffffffffffffffffffffffffffffffffffffff1681526020018315158152602001828152506003600085815260200190815260200160002060008201518160000160006101000a81548173ffffffffffffffffffffffffffffffffffffffff021916908373ffffffffffffffffffffffffffffffffffffffff16021790555060208201518160000160146101000a81548160ff02191690831515021790555060408201518160010155905050505050565b600160009054906101000a900473ffffffffffffffffffffffffffffffffffffffff1681565b6000808273ffffffffffffffffffffffffffffffffffffffff163b119050919050565b600080fd5b600080fd5b6000819050919050565b610ef881610ee5565b8114610f0357600080fd5b50565b600081359050610f1581610eef565b92915050565b600080fd5b600080fd5b600080fd5b60008083601f840112610f4057610f3f610f1b565b5b8235905067ffffffffffffffff811115610f5d57610f5c610f20565b5b602083019150836001820283011115610f7957610f78610f25565b5b9250929050565b600080600060408486031215610f9957610f98610edb565b5b6000610fa786828701610f06565b935050602084013567ffffffffffffffff811115610fc857610fc7610ee0565b5b610fd486828701610f2a565b92509250509250925092565b610fe981610ee5565b82525050565b60006020820190506110046000830184610fe0565b92915050565b6000806040838503121561102157611020610edb565b5b600061102f85828601610f06565b925050602061104085828601610f06565b9150509250929050565b6000602082840312156110605761105f610edb565b5b600061106e84828501610f06565b91505092915050565b600073ffffffffffffffffffffffffffffffffffffffff82169050919050565b60006110a282611077565b9050919050565b6110b281611097565b82525050565b60008115159050919050565b6110cd816110b8565b82525050565b60006060820190506110e860008301866110a9565b6110f560208301856110c4565b6111026040830184610fe0565b949350505050565b61111381611097565b811461111e57600080fd5b50565b6000813590506111308161110a565b92915050565b6000806040838503121561114d5761114c610edb565b5b600061115b85828601610f06565b925050602061116c85828601611121565b9150509250929050565b61117f816110b8565b811461118a57600080fd5b50565b60008135905061119c81611176565b92915050565b6000806000606084860312156111bb576111ba610edb565b5b60006111c986828701610f06565b93505060206111da8682870161118d565b92505060406111eb86828701610f06565b9150509250925092565b600060208201905061120a60008301846110a9565b92915050565b600082825260208201905092915050565b7f746f6b656e20646f65736e742065786973740000000000000000000000000000600082015250565b6000611257601283611210565b915061126282611221565b602082019050919050565b600060208201905081810360008301526112868161124a565b9050919050565b7f4e6f7420666f722073616c650000000000000000000000000000000000000000600082015250565b60006112c3600c83611210565b91506112ce8261128d565b602082019050919050565b600060208201905081810360008301526112f2816112b6565b9050919050565b600081905092915050565b7f4574686572000000000000000000000000000000000000000000000000000000600082015250565b600061133a6005836112f9565b915061134582611304565b600582019050919050565b600061135b8261132d565b9150819050919050565b82818337600083830152505050565b600061138083856112f9565b935061138d838584611365565b82840190509392505050565b60006113a6828486611374565b91508190509392505050565b7f7072696365206e6f74206d657400000000000000000000000000000000000000600082015250565b60006113e8600d83611210565b91506113f3826113b2565b602082019050919050565b60006020820190508181036000830152611417816113db565b9050919050565b7f4e487b7100000000000000000000000000000000000000000000000000000000600052601160045260246000fd5b600061145882610ee5565b915061146383610ee5565b9250817fffffffffffffffffffffffffffffffffffffffffffffffffffffffffffffffff048311821515161561149c5761149b61141e565b5b828202905092915050565b7f4e487b7100000000000000000000000000000000000000000000000000000000600052601260045260246000fd5b60006114e182610ee5565b91506114ec83610ee5565b9250826114fc576114fb6114a7565b5b828204905092915050565b600061151282610ee5565b915061151d83610ee5565b9250828210156115305761152f61141e565b5b828203905092915050565b600060408201905061155060008301856110a9565b61155d6020830184610fe0565b9392505050565b7f546f6b656e000000000000000000000000000000000000000000000000000000600082015250565b600061159a6005836112f9565b91506115a582611564565b600582019050919050565b60006115bb8261158d565b9150819050919050565b6000815190506115d481610eef565b92915050565b6000602082840312156115f0576115ef610edb565b5b60006115fe848285016115c5565b91505092915050565b7f496e73756666696369656e742062616c616e6365000000000000000000000000600082015250565b600061163d601483611210565b915061164882611607565b602082019050919050565b6000602082019050818103600083015261166c81611630565b9050919050565b600060608201905061168860008301866110a9565b61169560208301856110a9565b6116a26040830184610fe0565b949350505050565b7f616c726561647920666f722073616c6500000000000000000000000000000000600082015250565b60006116e0601083611210565b91506116eb826116aa565b602082019050919050565b6000602082019050818103600083015261170f816116d3565b9050919050565b7f7072696365206e6f742061737369676e65640000000000000000000000000000600082015250565b600061174c601283611210565b915061175782611716565b602082019050919050565b6000602082019050818103600083015261177b8161173f565b9050919050565b7f496e697469616c697a61626c653a20636f6e747261637420697320616c72656160008201527f647920696e697469616c697a6564000000000000000000000000000000000000602082015250565b60006117de602e83611210565b91506117e982611782565b604082019050919050565b6000602082019050818103600083015261180d816117d1565b9050919050565b6000819050919050565b600060ff82169050919050565b6000819050919050565b600061185061184b61184684611814565b61182b565b61181e565b9050919050565b61186081611835565b82525050565b600060208201905061187b6000830184611857565b92915050565b7f746f6b656e206578697374000000000000000000000000000000000000000000600082015250565b60006118b7600b83611210565b91506118c282611881565b602082019050919050565b600060208201905081810360008301526118e6816118aa565b905091905056fea26469706673582212203faee8f5af712639879790e0fc0696bd3b216f5882fa06a5b2fce0e3a3f85c5264736f6c634300080a0033",
  "devdoc": {
    "kind": "dev",
    "methods": {},
    "version": 1
  },
  "userdoc": {
    "kind": "user",
    "methods": {},
    "version": 1
  },
  "storageLayout": {
    "storage": [
      {
        "astId": 6,
        "contract": "contracts/NftMarketplace.sol:NftMarketplace",
        "label": "_initialized",
        "offset": 0,
        "slot": "0",
        "type": "t_uint8"
      },
      {
        "astId": 9,
        "contract": "contracts/NftMarketplace.sol:NftMarketplace",
        "label": "_initializing",
        "offset": 1,
        "slot": "0",
        "type": "t_bool"
      },
      {
        "astId": 1524,
        "contract": "contracts/NftMarketplace.sol:NftMarketplace",
        "label": "xnfttoken",
        "offset": 2,
        "slot": "0",
        "type": "t_contract(Tokentransfer)1132"
      },
      {
        "astId": 1532,
        "contract": "contracts/NftMarketplace.sol:NftMarketplace",
        "label": "admin",
        "offset": 0,
        "slot": "1",
        "type": "t_address"
      },
      {
        "astId": 1534,
        "contract": "contracts/NftMarketplace.sol:NftMarketplace",
        "label": "servicefeepercentage",
        "offset": 0,
        "slot": "2",
        "type": "t_uint256"
      },
      {
        "astId": 1539,
        "contract": "contracts/NftMarketplace.sol:NftMarketplace",
        "label": "Nfts",
        "offset": 0,
        "slot": "3",
        "type": "t_mapping(t_uint256,t_struct(NftMarket)1521_storage)"
      },
      {
        "astId": 1543,
        "contract": "contracts/NftMarketplace.sol:NftMarketplace",
        "label": "TokenIdtoPrice",
        "offset": 0,
        "slot": "4",
        "type": "t_mapping(t_uint256,t_uint256)"
      }
    ],
    "types": {
      "t_address": {
        "encoding": "inplace",
        "label": "address",
        "numberOfBytes": "20"
      },
      "t_bool": {
        "encoding": "inplace",
        "label": "bool",
        "numberOfBytes": "1"
      },
      "t_contract(Tokentransfer)1132": {
        "encoding": "inplace",
        "label": "contract Tokentransfer",
        "numberOfBytes": "20"
      },
      "t_mapping(t_uint256,t_struct(NftMarket)1521_storage)": {
        "encoding": "mapping",
        "key": "t_uint256",
        "label": "mapping(uint256 => struct NftMarketplace.NftMarket)",
        "numberOfBytes": "32",
        "value": "t_struct(NftMarket)1521_storage"
      },
      "t_mapping(t_uint256,t_uint256)": {
        "encoding": "mapping",
        "key": "t_uint256",
        "label": "mapping(uint256 => uint256)",
        "numberOfBytes": "32",
        "value": "t_uint256"
      },
      "t_struct(NftMarket)1521_storage": {
        "encoding": "inplace",
        "label": "struct NftMarketplace.NftMarket",
        "members": [
          {
            "astId": 1516,
            "contract": "contracts/NftMarketplace.sol:NftMarketplace",
            "label": "owners",
            "offset": 0,
            "slot": "0",
            "type": "t_address"
          },
          {
            "astId": 1518,
            "contract": "contracts/NftMarketplace.sol:NftMarketplace",
            "label": "isForSelling",
            "offset": 20,
            "slot": "0",
            "type": "t_bool"
          },
          {
            "astId": 1520,
            "contract": "contracts/NftMarketplace.sol:NftMarketplace",
            "label": "price",
            "offset": 0,
            "slot": "1",
            "type": "t_uint256"
          }
        ],
        "numberOfBytes": "64"
      },
      "t_uint256": {
        "encoding": "inplace",
        "label": "uint256",
        "numberOfBytes": "32"
      },
      "t_uint8": {
        "encoding": "inplace",
        "label": "uint8",
        "numberOfBytes": "1"
      }
    }
  }
}