{
  "address": "0xF43E212BDef3Fc844bdF857E5613eF65aA88Ad8C",
  "abi": [
    {
      "inputs": [
        {
          "internalType": "uint256",
          "name": "_servicefeepercentage",
          "type": "uint256"
        },
        {
          "internalType": "address",
          "name": "erc20",
          "type": "address"
        }
      ],
      "stateMutability": "nonpayable",
      "type": "constructor"
    },
    {
      "anonymous": false,
      "inputs": [
        {
          "indexed": false,
          "internalType": "uint8",
          "name": "version",
          "type": "uint8"
        }
      ],
      "name": "Initialized",
      "type": "event"
    },
    {
      "anonymous": false,
      "inputs": [
        {
          "indexed": false,
          "internalType": "address",
          "name": "recipient",
          "type": "address"
        },
        {
          "indexed": false,
          "internalType": "uint256",
          "name": "amount",
          "type": "uint256"
        }
      ],
      "name": "payout",
      "type": "event"
    },
    {
      "inputs": [
        {
          "internalType": "uint256",
          "name": "",
          "type": "uint256"
        }
      ],
      "name": "Nfts",
      "outputs": [
        {
          "internalType": "address",
          "name": "owners",
          "type": "address"
        },
        {
          "internalType": "bool",
          "name": "isForSelling",
          "type": "bool"
        },
        {
          "internalType": "uint256",
          "name": "price",
          "type": "uint256"
        }
      ],
      "stateMutability": "view",
      "type": "function"
    },
    {
      "inputs": [
        {
          "internalType": "uint256",
          "name": "",
          "type": "uint256"
        }
      ],
      "name": "TokenIdtoPrice",
      "outputs": [
        {
          "internalType": "uint256",
          "name": "",
          "type": "uint256"
        }
      ],
      "stateMutability": "view",
      "type": "function"
    },
    {
      "inputs": [],
      "name": "admin",
      "outputs": [
        {
          "internalType": "address",
          "name": "",
          "type": "address"
        }
      ],
      "stateMutability": "view",
      "type": "function"
    },
    {
      "inputs": [
        {
          "internalType": "uint256",
          "name": "_tokenId",
          "type": "uint256"
        },
        {
          "internalType": "string",
          "name": "currency",
          "type": "string"
        }
      ],
      "name": "buyNFT",
      "outputs": [],
      "stateMutability": "payable",
      "type": "function"
    },
    {
      "inputs": [
        {
          "internalType": "uint256",
          "name": "tokenId",
          "type": "uint256"
        },
        {
          "internalType": "bool",
          "name": "isForSelling",
          "type": "bool"
        },
        {
          "internalType": "uint256",
          "name": "price",
          "type": "uint256"
        }
      ],
      "name": "createNFT",
      "outputs": [],
      "stateMutability": "nonpayable",
      "type": "function"
    },
    {
      "inputs": [
        {
          "internalType": "uint256",
          "name": "_servicefeepercentage",
          "type": "uint256"
        },
        {
          "internalType": "address",
          "name": "erc20",
          "type": "address"
        }
      ],
      "name": "initialize",
      "outputs": [],
      "stateMutability": "nonpayable",
      "type": "function"
    },
    {
      "inputs": [
        {
          "internalType": "uint256",
          "name": "_tokenId",
          "type": "uint256"
        }
      ],
      "name": "ownerOfNFT",
      "outputs": [
        {
          "internalType": "address",
          "name": "",
          "type": "address"
        }
      ],
      "stateMutability": "view",
      "type": "function"
    },
    {
      "inputs": [
        {
          "internalType": "uint256",
          "name": "_tokenId",
          "type": "uint256"
        },
        {
          "internalType": "uint256",
          "name": "price",
          "type": "uint256"
        }
      ],
      "name": "putForSale",
      "outputs": [],
      "stateMutability": "nonpayable",
      "type": "function"
    },
    {
      "inputs": [],
      "name": "servicefeepercentage",
      "outputs": [
        {
          "internalType": "uint256",
          "name": "",
          "type": "uint256"
        }
      ],
      "stateMutability": "view",
      "type": "function"
    }
  ],
  "transactionHash": "0xf6ef971d949f9396c31e6be129632ca8cb82692af20187ab43a10649e46faaf6",
  "args": [
    10,
    "0x7c177bFe09d45546E0f4C50AdC3D6b7D2B4C322E"
  ],
  "numDeployments": 1,
  "solcInputHash": "da1d77a21b0014f9d7226054289a91c7",
  "bytecode": "0x60806040523480156200001157600080fd5b5060405162001b6f38038062001b6f83398181016040528101906200003791906200016d565b33600160006101000a81548173ffffffffffffffffffffffffffffffffffffffff021916908373ffffffffffffffffffffffffffffffffffffffff1602179055508160028190555080600060026101000a81548173ffffffffffffffffffffffffffffffffffffffff021916908373ffffffffffffffffffffffffffffffffffffffff1602179055505050620001b4565b600080fd5b6000819050919050565b620000e281620000cd565b8114620000ee57600080fd5b50565b6000815190506200010281620000d7565b92915050565b600073ffffffffffffffffffffffffffffffffffffffff82169050919050565b6000620001358262000108565b9050919050565b620001478162000128565b81146200015357600080fd5b50565b60008151905062000167816200013c565b92915050565b60008060408385031215620001875762000186620000c8565b5b60006200019785828601620000f1565b9250506020620001aa8582860162000156565b9150509250929050565b6119ab80620001c46000396000f3fe6080604052600436106100865760003560e01c806346c595311161005957806346c5953114610138578063bc8a436114610177578063da35a26f146101b4578063f057f726146101dd578063f851a4401461020657610086565b80630854748a1461008b57806327d3490d146100a75780632d8a746e146100d25780633cd76be21461010f575b600080fd5b6100a560048036038101906100a09190611008565b610231565b005b3480156100b357600080fd5b506100bc610a47565b6040516100c99190611077565b60405180910390f35b3480156100de57600080fd5b506100f960048036038101906100f49190611092565b610a4d565b6040516101069190611100565b60405180910390f35b34801561011b57600080fd5b506101366004803603810190610131919061111b565b610a8d565b005b34801561014457600080fd5b5061015f600480360381019061015a9190611092565b610b86565b60405161016e93929190611176565b60405180910390f35b34801561018357600080fd5b5061019e60048036038101906101999190611092565b610bdd565b6040516101ab9190611077565b60405180910390f35b3480156101c057600080fd5b506101db60048036038101906101d691906111d9565b610bf5565b005b3480156101e957600080fd5b5061020460048036038101906101ff9190611245565b610db6565b005b34801561021257600080fd5b5061021b610f1a565b6040516102289190611100565b60405180910390f35b600073ffffffffffffffffffffffffffffffffffffffff166003600085815260200190815260200160002060000160009054906101000a900473ffffffffffffffffffffffffffffffffffffffff1673ffffffffffffffffffffffffffffffffffffffff1614156102d7576040517f08c379a00000000000000000000000000000000000000000000000000000000081526004016102ce906112f5565b60405180910390fd5b600115156003600085815260200190815260200160002060000160149054906101000a900460ff16151514610341576040517f08c379a000000000000000000000000000000000000000000000000000000000815260040161033890611361565b60405180910390fd5b604051602001610350906113d8565b604051602081830303815290604052805190602001208282604051602001610379929190611421565b6040516020818303038152906040528051906020012014156105d257600360008481526020019081526020016000206001015434146103ed576040517f08c379a00000000000000000000000000000000000000000000000000000000081526004016103e490611486565b60405180910390fd5b60006064600254346103ff91906114d5565b610409919061155e565b905060008134610419919061158f565b9050600160009054906101000a900473ffffffffffffffffffffffffffffffffffffffff1673ffffffffffffffffffffffffffffffffffffffff166108fc839081150290604051600060405180830381858888f19350505050158015610483573d6000803e3d6000fd5b507f117de2fd76ea4a212645377cbe8b6af68c7e4c8169b18d98c4e6aa04d07366a1600160009054906101000a900473ffffffffffffffffffffffffffffffffffffffff16836040516104d79291906115c3565b60405180910390a16003600086815260200190815260200160002060000160009054906101000a900473ffffffffffffffffffffffffffffffffffffffff1673ffffffffffffffffffffffffffffffffffffffff166108fc829081150290604051600060405180830381858888f1935050505015801561055b573d6000803e3d6000fd5b507f117de2fd76ea4a212645377cbe8b6af68c7e4c8169b18d98c4e6aa04d07366a16003600087815260200190815260200160002060000160009054906101000a900473ffffffffffffffffffffffffffffffffffffffff16826040516105c39291906115c3565b60405180910390a150506109be565b6040516020016105e190611638565b60405160208183030381529060405280519060200120828260405160200161060a929190611421565b6040516020818303038152906040528051906020012014156109bd57600060029054906101000a900473ffffffffffffffffffffffffffffffffffffffff1673ffffffffffffffffffffffffffffffffffffffff166370a08231336040518263ffffffff1660e01b81526004016106819190611100565b6020604051808303816000875af11580156106a0573d6000803e3d6000fd5b505050506040513d601f19601f820116820180604052508101906106c49190611662565b6003600085815260200190815260200160002060010154111561071c576040517f08c379a0000000000000000000000000000000000000000000000000000000008152600401610713906116db565b60405180910390fd5b60006064600254600360008781526020019081526020016000206001015461074491906114d5565b61074e919061155e565b90506000816003600087815260200190815260200160002060010154610774919061158f565b9050600060029054906101000a900473ffffffffffffffffffffffffffffffffffffffff1673ffffffffffffffffffffffffffffffffffffffff1663f5537ede33600160009054906101000a900473ffffffffffffffffffffffffffffffffffffffff16856040518463ffffffff1660e01b81526004016107f7939291906116fb565b600060405180830381600087803b15801561081157600080fd5b505af1158015610825573d6000803e3d6000fd5b505050507f117de2fd76ea4a212645377cbe8b6af68c7e4c8169b18d98c4e6aa04d07366a1600160009054906101000a900473ffffffffffffffffffffffffffffffffffffffff168360405161087c9291906115c3565b60405180910390a1600060029054906101000a900473ffffffffffffffffffffffffffffffffffffffff1673ffffffffffffffffffffffffffffffffffffffff1663f5537ede336003600089815260200190815260200160002060000160009054906101000a900473ffffffffffffffffffffffffffffffffffffffff16846040518463ffffffff1660e01b8152600401610919939291906116fb565b600060405180830381600087803b15801561093357600080fd5b505af1158015610947573d6000803e3d6000fd5b505050507f117de2fd76ea4a212645377cbe8b6af68c7e4c8169b18d98c4e6aa04d07366a16003600087815260200190815260200160002060000160009054906101000a900473ffffffffffffffffffffffffffffffffffffffff16826040516109b29291906115c3565b60405180910390a150505b5b336003600085815260200190815260200160002060000160006101000a81548173ffffffffffffffffffffffffffffffffffffffff021916908373ffffffffffffffffffffffffffffffffffffffff16021790555060006003600085815260200190815260200160002060000160146101000a81548160ff021916908315150217905550505050565b60025481565b60006003600083815260200190815260200160002060000160009054906101000a900473ffffffffffffffffffffffffffffffffffffffff169050919050565b600015156003600084815260200190815260200160002060000160149054906101000a900460ff16151514610af7576040517f08c379a0000000000000000000000000000000000000000000000000000000008152600401610aee9061177e565b60405180910390fd5b60016003600084815260200190815260200160002060000160146101000a81548160ff0219169083151502179055508060046000848152602001908152602001600020819055506000811415610b82576040517f08c379a0000000000000000000000000000000000000000000000000000000008152600401610b79906117ea565b60405180910390fd5b5050565b60036020528060005260406000206000915090508060000160009054906101000a900473ffffffffffffffffffffffffffffffffffffffff16908060000160149054906101000a900460ff16908060010154905083565b60046020528060005260406000206000915090505481565b60008060019054906101000a900460ff16159050808015610c265750600160008054906101000a900460ff1660ff16105b80610c535750610c3530610f40565b158015610c525750600160008054906101000a900460ff1660ff16145b5b610c92576040517f08c379a0000000000000000000000000000000000000000000000000000000008152600401610c899061187c565b60405180910390fd5b60016000806101000a81548160ff021916908360ff1602179055508015610ccf576001600060016101000a81548160ff0219169083151502179055505b33600160006101000a81548173ffffffffffffffffffffffffffffffffffffffff021916908373ffffffffffffffffffffffffffffffffffffffff1602179055508260028190555081600060026101000a81548173ffffffffffffffffffffffffffffffffffffffff021916908373ffffffffffffffffffffffffffffffffffffffff1602179055508015610db15760008060016101000a81548160ff0219169083151502179055507f7f26b83ff96e1f2b6a682f133852f6798a09c465da95921460cefb38474024986001604051610da891906118ee565b60405180910390a15b505050565b600073ffffffffffffffffffffffffffffffffffffffff166003600085815260200190815260200160002060000160009054906101000a900473ffffffffffffffffffffffffffffffffffffffff1673ffffffffffffffffffffffffffffffffffffffff1614610e5b576040517f08c379a0000000000000000000000000000000000000000000000000000000008152600401610e5290611955565b60405180910390fd5b60405180606001604052803373ffffffffffffffffffffffffffffffffffffffff1681526020018315158152602001828152506003600085815260200190815260200160002060008201518160000160006101000a81548173ffffffffffffffffffffffffffffffffffffffff021916908373ffffffffffffffffffffffffffffffffffffffff16021790555060208201518160000160146101000a81548160ff02191690831515021790555060408201518160010155905050505050565b600160009054906101000a900473ffffffffffffffffffffffffffffffffffffffff1681565b6000808273ffffffffffffffffffffffffffffffffffffffff163b119050919050565b600080fd5b600080fd5b6000819050919050565b610f8081610f6d565b8114610f8b57600080fd5b50565b600081359050610f9d81610f77565b92915050565b600080fd5b600080fd5b600080fd5b60008083601f840112610fc857610fc7610fa3565b5b8235905067ffffffffffffffff811115610fe557610fe4610fa8565b5b60208301915083600182028301111561100157611000610fad565b5b9250929050565b60008060006040848603121561102157611020610f63565b5b600061102f86828701610f8e565b935050602084013567ffffffffffffffff8111156110505761104f610f68565b5b61105c86828701610fb2565b92509250509250925092565b61107181610f6d565b82525050565b600060208201905061108c6000830184611068565b92915050565b6000602082840312156110a8576110a7610f63565b5b60006110b684828501610f8e565b91505092915050565b600073ffffffffffffffffffffffffffffffffffffffff82169050919050565b60006110ea826110bf565b9050919050565b6110fa816110df565b82525050565b600060208201905061111560008301846110f1565b92915050565b6000806040838503121561113257611131610f63565b5b600061114085828601610f8e565b925050602061115185828601610f8e565b9150509250929050565b60008115159050919050565b6111708161115b565b82525050565b600060608201905061118b60008301866110f1565b6111986020830185611167565b6111a56040830184611068565b949350505050565b6111b6816110df565b81146111c157600080fd5b50565b6000813590506111d3816111ad565b92915050565b600080604083850312156111f0576111ef610f63565b5b60006111fe85828601610f8e565b925050602061120f858286016111c4565b9150509250929050565b6112228161115b565b811461122d57600080fd5b50565b60008135905061123f81611219565b92915050565b60008060006060848603121561125e5761125d610f63565b5b600061126c86828701610f8e565b935050602061127d86828701611230565b925050604061128e86828701610f8e565b9150509250925092565b600082825260208201905092915050565b7f746f6b656e20646f65736e742065786973740000000000000000000000000000600082015250565b60006112df601283611298565b91506112ea826112a9565b602082019050919050565b6000602082019050818103600083015261130e816112d2565b9050919050565b7f4e6f7420666f722073616c650000000000000000000000000000000000000000600082015250565b600061134b600c83611298565b915061135682611315565b602082019050919050565b6000602082019050818103600083015261137a8161133e565b9050919050565b600081905092915050565b7f4574686572000000000000000000000000000000000000000000000000000000600082015250565b60006113c2600583611381565b91506113cd8261138c565b600582019050919050565b60006113e3826113b5565b9150819050919050565b82818337600083830152505050565b60006114088385611381565b93506114158385846113ed565b82840190509392505050565b600061142e8284866113fc565b91508190509392505050565b7f7072696365206e6f74206d657400000000000000000000000000000000000000600082015250565b6000611470600d83611298565b915061147b8261143a565b602082019050919050565b6000602082019050818103600083015261149f81611463565b9050919050565b7f4e487b7100000000000000000000000000000000000000000000000000000000600052601160045260246000fd5b60006114e082610f6d565b91506114eb83610f6d565b9250817fffffffffffffffffffffffffffffffffffffffffffffffffffffffffffffffff0483118215151615611524576115236114a6565b5b828202905092915050565b7f4e487b7100000000000000000000000000000000000000000000000000000000600052601260045260246000fd5b600061156982610f6d565b915061157483610f6d565b9250826115845761158361152f565b5b828204905092915050565b600061159a82610f6d565b91506115a583610f6d565b9250828210156115b8576115b76114a6565b5b828203905092915050565b60006040820190506115d860008301856110f1565b6115e56020830184611068565b9392505050565b7f546f6b656e000000000000000000000000000000000000000000000000000000600082015250565b6000611622600583611381565b915061162d826115ec565b600582019050919050565b600061164382611615565b9150819050919050565b60008151905061165c81610f77565b92915050565b60006020828403121561167857611677610f63565b5b60006116868482850161164d565b91505092915050565b7f496e73756666696369656e742062616c616e6365000000000000000000000000600082015250565b60006116c5601483611298565b91506116d08261168f565b602082019050919050565b600060208201905081810360008301526116f4816116b8565b9050919050565b600060608201905061171060008301866110f1565b61171d60208301856110f1565b61172a6040830184611068565b949350505050565b7f616c726561647920666f722073616c6500000000000000000000000000000000600082015250565b6000611768601083611298565b915061177382611732565b602082019050919050565b600060208201905081810360008301526117978161175b565b9050919050565b7f7072696365206e6f742061737369676e65640000000000000000000000000000600082015250565b60006117d4601283611298565b91506117df8261179e565b602082019050919050565b60006020820190508181036000830152611803816117c7565b9050919050565b7f496e697469616c697a61626c653a20636f6e747261637420697320616c72656160008201527f647920696e697469616c697a6564000000000000000000000000000000000000602082015250565b6000611866602e83611298565b91506118718261180a565b604082019050919050565b6000602082019050818103600083015261189581611859565b9050919050565b6000819050919050565b600060ff82169050919050565b6000819050919050565b60006118d86118d36118ce8461189c565b6118b3565b6118a6565b9050919050565b6118e8816118bd565b82525050565b600060208201905061190360008301846118df565b92915050565b7f746f6b656e206578697374000000000000000000000000000000000000000000600082015250565b600061193f600b83611298565b915061194a82611909565b602082019050919050565b6000602082019050818103600083015261196e81611932565b905091905056fea264697066735822122084b05b4589420d4aca66eba4a37a498e39770de20519389daa9b2a0364b2d8d164736f6c634300080a0033",
  "devdoc": {
    "kind": "dev",
    "methods": {},
    "version": 1
  },
  "userdoc": {
    "kind": "user",
    "methods": {},
    "version": 1
  },
  "storageLayout": {
    "storage": [
      {
        "astId": 6,
        "contract": "contracts/NftMarketV2.sol:NftMarketV2",
        "label": "_initialized",
        "offset": 0,
        "slot": "0",
        "type": "t_uint8"
      },
      {
        "astId": 9,
        "contract": "contracts/NftMarketV2.sol:NftMarketV2",
        "label": "_initializing",
        "offset": 1,
        "slot": "0",
        "type": "t_bool"
      },
      {
        "astId": 1148,
        "contract": "contracts/NftMarketV2.sol:NftMarketV2",
        "label": "xnfttoken",
        "offset": 2,
        "slot": "0",
        "type": "t_contract(Tokentransfer)1132"
      },
      {
        "astId": 1156,
        "contract": "contracts/NftMarketV2.sol:NftMarketV2",
        "label": "admin",
        "offset": 0,
        "slot": "1",
        "type": "t_address"
      },
      {
        "astId": 1158,
        "contract": "contracts/NftMarketV2.sol:NftMarketV2",
        "label": "servicefeepercentage",
        "offset": 0,
        "slot": "2",
        "type": "t_uint256"
      },
      {
        "astId": 1163,
        "contract": "contracts/NftMarketV2.sol:NftMarketV2",
        "label": "Nfts",
        "offset": 0,
        "slot": "3",
        "type": "t_mapping(t_uint256,t_struct(NftMarket)1145_storage)"
      },
      {
        "astId": 1167,
        "contract": "contracts/NftMarketV2.sol:NftMarketV2",
        "label": "TokenIdtoPrice",
        "offset": 0,
        "slot": "4",
        "type": "t_mapping(t_uint256,t_uint256)"
      }
    ],
    "types": {
      "t_address": {
        "encoding": "inplace",
        "label": "address",
        "numberOfBytes": "20"
      },
      "t_bool": {
        "encoding": "inplace",
        "label": "bool",
        "numberOfBytes": "1"
      },
      "t_contract(Tokentransfer)1132": {
        "encoding": "inplace",
        "label": "contract Tokentransfer",
        "numberOfBytes": "20"
      },
      "t_mapping(t_uint256,t_struct(NftMarket)1145_storage)": {
        "encoding": "mapping",
        "key": "t_uint256",
        "label": "mapping(uint256 => struct NftMarketV2.NftMarket)",
        "numberOfBytes": "32",
        "value": "t_struct(NftMarket)1145_storage"
      },
      "t_mapping(t_uint256,t_uint256)": {
        "encoding": "mapping",
        "key": "t_uint256",
        "label": "mapping(uint256 => uint256)",
        "numberOfBytes": "32",
        "value": "t_uint256"
      },
      "t_struct(NftMarket)1145_storage": {
        "encoding": "inplace",
        "label": "struct NftMarketV2.NftMarket",
        "members": [
          {
            "astId": 1140,
            "contract": "contracts/NftMarketV2.sol:NftMarketV2",
            "label": "owners",
            "offset": 0,
            "slot": "0",
            "type": "t_address"
          },
          {
            "astId": 1142,
            "contract": "contracts/NftMarketV2.sol:NftMarketV2",
            "label": "isForSelling",
            "offset": 20,
            "slot": "0",
            "type": "t_bool"
          },
          {
            "astId": 1144,
            "contract": "contracts/NftMarketV2.sol:NftMarketV2",
            "label": "price",
            "offset": 0,
            "slot": "1",
            "type": "t_uint256"
          }
        ],
        "numberOfBytes": "64"
      },
      "t_uint256": {
        "encoding": "inplace",
        "label": "uint256",
        "numberOfBytes": "32"
      },
      "t_uint8": {
        "encoding": "inplace",
        "label": "uint8",
        "numberOfBytes": "1"
      }
    }
  }
}